:020000040000fa
:080000000002040000000000f2
:020000040000fa
:1000080090020000900200009002000090020000a0
:100018009002000090020000900200009002000090
:100028009002000090020000900200009002000080
:100038009002000090020000900200009002000070
:020000040000fa
:020000040000fa
:10040000afe720000eff20000e0188000000000072
:100410000c000700008d20000100200011000700e3
:10042000000020000000e000020032000000020096
:1004300000000000c0060200000000000040da00da
:100440000000fe004440a900000020000000e00081
:100450000300320000002000a00188004440a800f2
:100460000000060091018800800078000000eb0089
:1004700015003700e280400032a0b4009101ba00bc
:10048000e280400032a0b4009102ba00e280400055
:1004900032a0b4000002eb00472bde00f507b200eb
:1004a000602ce10004003a000059eb008301e900f0
:1004b000fdff3e00040037006128e100010032002a
:1004c0000082eb00040007001101ba000200e00006
:1004d000e8ff3a00000006003159ba008301e90044
:1004e0000c0032002159ba008301e90008003200f3
:1004f0000400e00003003a00e280400032a0b400b3
:10050000f5ff370011d9ba008301e900faff3a007c
:100510008100e800e180400032a0b4000000060045
:080520000040da000000fe00bb
:020000040000fa
:100528000000fa00f00220002010880003000700f5
:100538004a0007000080fa00000006000000fa00e8
:1005480007e2a80000c429000100200026030700d4
:1005580007a2a8000782a8000762a9000742a9000d
:100568000722a8000702a80006e2a80006c2a90000
:1005780006a2a8000682a9000662a9000642a900f0
:100588000622a9000602a9000000eb00101088004e
:100598000000eb00001088000080fa000000060050
:1005a8000000fa000602a8000000000030108000d9
:1005b80061006000e00f5000fcff3a000080fa0084
:1005c800000006000000fa000642a8000000000033
:1005d8003010800064006000e00f5000fcff3a001b
:1005e8000080fa00000006000000fa000622a800b9
:1005f800000000003010800062006000e00f500032
:10060800fcff3a000080fa00000006000000fa0033
:1006180006a2a8000682a800000000003010800092
:1006280070006000e00f5000fcff3a000080fa0004
:10063800000006000000fa0006a2a9000682a80031
:10064800000000003010800070006000e00f5000d3
:10065800fcff3a000080fa00000006000200fa00e1
:10066800cfff0700000d20001010880000000000d8
:100678004010800061006000e00f5000fcff3a006d
:10068800000000004110800000002400008060008d
:10069800e00f5000fbff3a0000000000411080000e
:1006a8000000280000806000e00f5000fbff3a00c7
:1006b800b0032000101088000000000040108000e7
:1006c80061006000e00f5000fcff3a0000000000ed
:1006d800411080000000240000806000e00f5000fe
:1006e800fbff3a00000000004110800000002800d5
:1006f80000806000e00f5000fbff3a00baff0700df
:10070800000000004010800061006000e00f500011
:10071800fcff3a00000000004110800000002400a7
:1007280000806000e00f5000fbff3a00100d200031
:100738001010880000000000401080006100600078
:10074800e00f5000fcff3a0000000000411080005c
:100758000000280000806000e00f5000fbff3a0016
:100768000662a800000000003010800068006000e9
:10077800e00f5000fcff3a0000000000401080002d
:1007880062006000e00f5000fcff320000108000a3
:1007980000728800000000004010800062006000c5
:1007a800e00f5000fcff3a00a2ff07000662a80015
:1007b800000000003010800068006000e00f50006a
:1007c800fcff3a000000000040108000620060005a
:1007d800e00f5000fcff320000108000107288000b
:1007e800000000004010800062006000e00f500030
:1007f800fcff3a008fff07000662a8000000000017
:100808003010800068006000e00f5000fcff3a00e4
:10081800000000004010800062006000e00f5000ff
:10082800fcff3200001080003072880000000000d9
:100838004010800062006000e00f5000fcff3a00aa
:100848007cff07000662a80000000000301080004e
:1008580068006000e00f5000fcff3a000000000054
:100868004010800062006000e00f5000fcff320082
:1008780000108000407288000000000040108000d6
:1008880062006000e00f5000fcff3a0069ff0700bb
:100898000662a800000000003010800068006000b8
:1008a800e00f5000fcff3a000000000040108000fc
:1008b80062006000e00f5000fcff32000010800072
:1008c8006072880000000000401080006200600034
:1008d800e00f5000fcff3a0056ff07000662a80030
:1008e800000000003010800068006000e00f500039
:1008f800fcff3a0000000000401080006200600029
:10090800e00f5000fcff3200001080007072880079
:10091800000000004010800062006000e00f5000fe
:10092800fcff3a0043ff07000662a8000000000031
:100938003010800068006000e00f5000fcff3a00b3
:10094800000000004010800062006000e00f5000ce
:10095800fcff320000108000907288000000000048
:100968004010800062006000e00f5000fcff3a0079
:1009780030ff07000662a800000000003010800069
:1009880068006000e00f5000fcff3a000000000023
:100998004010800062006000e00f5000fcff320051
:1009a80000108000a0728800000000004010800045
:1009b80062006000e00f5000fcff3a001dff0700d6
:1009c8000662a80000000000301080006800600087
:1009d800e00f5000fcff3a000000000040108000cb
:1009e80062006000e00f5000fcff32000010800041
:1009f800c0728800000000004010800062006000a3
:100a0800e00f5000fcff3a000aff07000662a8004a
:100a1800000000003010800068006000e00f500007
:100a2800fcff3a00000000004010800062006000f7
:100a3800e00f5000fcff320000108000d0728800e8
:100a4800000000004010800062006000e00f5000cd
:100a5800fcff3a00f7fe07000662a800000000004d
:100a68003010800068006000e00f5000fcff3a0082
:100a7800000000004010800062006000e00f50009d
:100a8800fcff320000108000f072880000000000b7
:100a98004010800062006000e00f5000fcff3a0048
:100aa800e4fe07000662a800000000003010800085
:100ab80068006000e00f5000fcff3a0000000000f2
:100ac8004010800062006000e00f5000fcff320020
:100ad80000108000007388000000000040108000b3
:100ae80062006000e00f5000fcff3a00d1fe0700f2
:100af8000662a80000000000301080006800600056
:100b0800e00f5000fcff3a00000000004010800099
:100b180062006000e00f5000fcff3200001080000f
:100b28002073880000000000401080006200600010
:100b3800e00f5000fcff3a00befe07000662a80066
:100b4800000000003010800068006000e00f5000d6
:100b5800fcff3a00000000004010800062006000c6
:100b6800e00f5000fcff3200001080003073880056
:100b7800000000004010800062006000e00f50009c
:100b8800fcff3a00a1fe07008efe07000000eb0004
:100b9800000f78001e007800e00f500025003a0092
:100ba80000728000c800dd001072800000804000e4
:100bb800f071880030728000c800dd00407280004b
:100bc800008040002072880060728000c800dd004c
:100bd800707280000080400050728800907280001f
:100be800c800dd00a072800000804000807288008c
:100bf800c0728000c800dd00d07280000080400014
:100c0800b0728800f0728000c800dd0000738000b8
:100c180000804000e072880020738000c800dd007a
:100c28003073800000804000107388001e0fe800b9
:100c38004f00370040738000f071880050738000c7
:100c48002072880060738000507288007073800082
:100c58008072880080738000b07288009073800072
:100c6800e0728800a0738000107388000072800012
:100c7800c800dd00107280000080400040738800ca
:100c880030728000c800dd004072800000804000a3
:100c98005073880060728000c800dd0070728000a8
:100ca800008040006073880090728000c800dd00fa
:100cb800a07280000080400070738800c0728000bd
:100cc800c800dd00d072800000804000807388007a
:100cd800f0728000c800dd000073800000804000d2
:100ce8009073880020738000c800dd003073800096
:100cf80000804000a073880051738000207280003b
:100d0800808f50000900340041738000f07180002a
:100d1800808f500005003400c042a900c442a900d9
:100d2800c062a900c462a800110037005173800096
:100d380020728000808f500009003d0041738000c0
:100d4800f0718000808f500005003d00c062a9004e
:100d5800c462a900c042a900c442a8000400370028
:100d6800c062a900c462a800c042a900c442a80089
:100d78000080fa00000006000200fa00213a800014
:100d880000fe2f0000806000203a880090022000ba
:100d9800303a8800213a8000f0f32f00008060008c
:100da800203a880000000000113a8000000220006c
:100db80000806000e00f5000fbff32000080eb0075
:100dc800601988000000eb00000f7800030037006e
:100dd800200007003d0007001e0fe8001e007800f5
:100de800e20f5000faff3400640007008e0007008d
:100df800b800070000a0250021262000fa000700ff
:100e0800c7fd0700c1000700b900070000a02500c2
:100e180021262000f400070004000700ad000700a9
:100e28000000eb000080fa00000006000000fa0055
:100e38000080fa00000006000000fa00c9e2a900dc
:100e4800cde2a800c9c2a900cdc2a9000080fa005d
:100e5800000006000200fa00c042a900c442a9002e
:100e6800c062a900c462a9000000eb00000f78006e
:100e780011003700201680004200de00614060004b
:100e880000c0ea00614060000080fb006100600073
:100e98004200dd0022168000b1ff2f0081006100b2
:100ea800008070002016880000d022001113200056
:100eb800cd0007001e0fe8001e007800e70f500065
:100ec800ecff34000080fa00000006000200fa007f
:100ed800c042a900c442a900c062a900c462a90016
:100ee8000000eb00000f780011003700201680008a
:100ef8004300de006140600000c0ea00614060001d
:100f08000080fb00610060004300dd0022168000c5
:100f180071ff2f008100610000807000201688009a
:100f280000d0220011132000af0007001e0fe800b8
:100f38001e007800e70f5000ecff34000080fa0034
:100f4800000006000000fa00c9e2a900cde2a900ed
:100f5800c9c2a900cdc2a8000080fa00000006009e
:100f68000000fa00c9e2a900cde2a800c9c2a900a0
:100f7800cdc2a8000080fa00000006000200fa00b6
:100f8800c062a900c042a900c442a900c462a90065
:100f98000000eb00000f78001e00370020168000cc
:100fa8004200de006140600000c0ea00614060006d
:100fb8000080fb00610060004200dd002216800016
:100fc800b1ff2f00810061000080700020168800aa
:100fd80000d0220011132000830007002016800093
:100fe8004300de006140600000c0ea00614060002c
:100ff8000080fb00610060004300dd0022168000d5
:1010080071ff2f00810061000080700020168800a9
:101018001e0fe8001e007800e90f5000dfff3400c3
:101028000080fa00000006000200fa00c042a90091
:10103800c062a900c442a900c462a9000000eb0074
:10104800000f78001e003700201680004200de00e6
:101058006140600000c0ea00614060000080fb0061
:10106800610060004200dd0022168000b1ff2f0001
:101078008100610000807000201688002016800022
:101088004300de006140600000c0ea00614060008b
:101098000080fb00610060004300dd002216800034
:1010a80071ff2f0081006100008070002016880009
:1010b80000d02200111320004b0007001e0fe8008b
:1010c8001e007800e90f5000dfff34000080fa00ae
:1010d800000006000000fa00c042a900c062a90092
:1010e800c442a900c462a9000080fa0000000600fa
:1010f8000000fa00c042a900c062a900c442a800ca
:10110800c462a8000080fa00000006000000fa008f
:101118000080fa00000006000200fa000000eb0060
:10112800000f7800f0032000303a8800213a800050
:10113800f0f32f0000806000203a8800213a8000f8
:1011480000fe2f0000806000203a88001200200076
:1011580080072000a109200033742000804978000e
:10116800814978008249780012002000600420003c
:101178007105200023742000804978008149780097
:1011880082497800103a8000103a80001e0fe8006b
:081198000080fa0000000600cf
:020000040000fa
:1011a000000800003e06000000000000760e00006f
:1011b0000400000002000000000000000000000029
:1011c0003e0e00002a00000000000000680e000033
:1011d0000e000000020000000000000000000000ff
:1011e00000000000000000000000000000000000ff
:020000040000fa
:1011f000f03fb1000180b10006003500ee030900a8
:1012000000000000403fb1000180b100fbff3d0045
:101210001000b000203fb00002003500008009003f
:081220000000000000000600c0
:020000040000fa
:101228000000fa0005e1a80005a1a8002108800037
:10123800f0fc2f00008060002008880004a1a900ad
:101248000421a90020ee2f00000888000080fa0081
:10125800000006000000fa002c03a9002c23a900b6
:101268000080fa00000006000000fa000080fa0082
:04127800000006006c
:020000040000fa
:0200000401f009
:040000000f000000ed
:020000040000fa
:0200000401f009
:0400080007000000ed
:020000040000fa
:0200000401f009
:04000c00810000006f
:020000040000fa
:0200000401f009
:040010006300000089
:020000040000fa
:0200000401f009
:040014005f00000089
:020000040000fa
:0200000401f009
:04001800f7000000ed
:020000040000fa
:0200000401f009
:04001c00dfff000002
:00000001FF
