:020000040000fa
:080000000002040000000000f2
:020000040000fa
:100400008f9920000eff20000e01880000000000e0
:100410000c00070080252100010020001f000700bc
:10042000000020000000e000020032000000020096
:1004300000000000800f0200000000000040da0011
:100440000000fe004440a900000020000000e00081
:100450000300320000002000a00188004440a800f2
:1004600000000600f03fb1000180b1000600350039
:10047000ee03090000000000403fb1000180b10020
:10048000fbff3d001000b000203fb000020035002f
:1004900000800900000000000000060091018800b3
:1004a000800078000000eb0015003700e28040007b
:1004b00032a0b4009101ba00e280400032a0b40042
:1004c0009102ba00e280400032a0b4000002eb00ca
:1004d000472bde00f507b200602ce10004003a0073
:1004e0000059eb008301e900fdff3e0004003700e6
:1004f0006128e100010032000082eb0004000700e7
:100500001101ba000200e000e8ff3a000000060016
:100510003159ba008301e9000c0032002159ba00b8
:100520008301e900080032000400e00003003a0003
:10053000e280400032a0b400f5ff370011d9ba00c4
:100540008301e900faff3a008100e800e180400001
:1005500032a0b400000006000040da000000fe00f7
:100560000001be00f80007000470a70003f0a1001e
:100570006509b100160032000d0035006828e10061
:1005800006003500f0ff2f00f1ff27000300e00018
:1005900013003b000100280000000500000040009f
:1005a000818048008502e900fcff3a00080037001e
:1005b000f88f420002003c008000eb0000000500c4
:1005c0008100d1000080d3008502e800fcff3a00e2
:1005d0000300e00002003b0060001000e080180013
:1005e000000006004f89de0082017800eb00370032
:1005f00003f0a200889fbe008a9fbe008c1f780077
:10060000f6000700fd0033006450e1004f003200a7
:100610006420e1005200320003826c0007003b00be
:100620000905d0000306d000820f54000c065d00bf
:1006300002003900020032008901780003067800c8
:100640008582550004003d000003fd008103fd008c
:100650008502ea008b854200840f720002003b0095
:1006600060001000e08018006011b8000005eb0089
:100670007a28e1000a00390006007800c75ddd0035
:10068000f707b200878075002d0037008281710066
:100690000a017800610560008180d1000080d300ec
:1006a0008502e900f9ff3b0006044000878448000a
:1006b00002003b0060041400e0841c000988a300d1
:1006c000070032008a81710082817100610164003b
:1006d0008904d1000884d3008b05e8001700370097
:1006e0000978a30013003a000b00e0001300340067
:1006f0008b05e9000804440089844c000a44740016
:100700000978a3000d003a000b00e0000700340058
:100710008b05e9000804440089844c0001003a007c
:100720000b0020000978a300f7ff32000001eb0066
:1007300002003700828171000a017800bf000700c3
:100740000cf0a70001f0a000b50037006420e10024
:1007500002003a00838f6c00b50033000801be0030
:100760000200be00ae003700889fbe008a9fbe0018
:100770008c1f780099000700a000330003866c00ee
:100780006450e1002e0032006420e10033003200aa
:100790006150e1002f0032006120e10031003200a1
:1007a00085855500eb07b0000900200008042000f3
:1007b000050037000804440089844c000a00310019
:1007c0000603430087834b000001530081815b00d7
:1007d000f8ff33000203be000800a0000804440034
:1007e00089844c00f6ff3900c639dd0083017300af
:1007f00001003200130020008904d1000884d300d6
:100800000998a300050032000800a7000300a0001b
:100810008904d1000884d3008b05e8008904d10045
:100820000884d3000001eb000281d200830007009e
:1008300001f0a1000cf0a70001f0a0007800370043
:100840006420e1007a0032000801be000200be0010
:10085000f7ff37006120e100750032006000b8004a
:10086000f3ff37000000200001f82700f0ff3700f9
:10087000f4ff2f0097003700889fbe008a9fbe00bc
:100880008c1f7800550007005c00330003866c0065
:100890006450e100240032006420e10027003200af
:1008a0006150e100220032006120e10021003200ad
:1008b0008b854200eb07b1000134b800003ab80064
:1008c0000804420089844a00013ab8000030b800a8
:1008d0008880400009014a00040033000000400005
:1008e00081804800020149008b05e900c909dd004b
:1008f000830170000100320013002000c814de00e4
:100900004814dd004709de001200b200c808de000e
:10091000088470004900070001f0a1000cf0a70056
:1009200001f0a0003e0037006120e10040003200ed
:100930000801be000200be00f7ff37006150e10071
:10094000fcff3a003a003700c70ade00f107b200a8
:10095000f50fb20008003200e1cf42000200320081
:100960000170a00024000500810f7000010032001a
:100970000408050044000500810f700002003a00e1
:10098000140005008502e9000000400081c0480015
:10099000fcff3b000170a00024000500881f7800c8
:1009a000030478000300e00007003d006000100031
:1009b000e080180060011900e081190002003b008e
:1009c00001f02d00030037005d00070008f0a700cc
:1009d00001f0a0004f047800000006000004be00f3
:1009e000d9ff07000003be000405be000200be00e0
:1009f000d5ff0700844f7500000006000200be000e
:100a00006450e100050036006420e1000200360079
:100a10000968a30001003a000800be000160a000c0
:100a20004f0678004f05be004f04be0000000600d0
:100a3000f0ff2f00f1ff2700f9ff370081002000b1
:100a4000618055000b003d000b00200061fe2f006f
:100a50000100e1001d003400828171006101640029
:100a60008904d1000884d3000000e800faff3a00ae
:100a7000710020006100640003007000020060004b
:100a80000900320061044400e0844c000988a5009c
:100a9000050032008b05e8006808e10002003a001a
:100aa0008904d1000884d300f20f20000258e1002d
:100ab00005003d00c75ddd00f907b20089807500c3
:100ac00008007800000006000bf827008b00780073
:100ad00000000500889fbe008a9fbe00841f78002a
:100ae000beff07004f00780011003300f0ff2f0019
:100af000838f6c0006003b00040565000a00a70018
:100b00000800370009f0a600100020000800370098
:100b1000820f5400838f5c00030039001000200016
:100b200001003e000000200009f0a7000000ea00dc
:100b30004f05be004f04be000000e00000000600ac
:100b4000889fbe008a9fbe00008270000402710070
:100b500004827100260032000004be000200be00c4
:100b60006011b8006b092000950220000182cf00bf
:100b70000a0039000541b1000082cf0007003900aa
:100b80000541b1000982cf00040039000541b100e0
:100b90000882cf00010039000541b1000542520032
:100ba000120032000a003b00828171006101640082
:100bb0008100d1000080d3008984d3000884d30051
:100bc0008b05e8000442e800f7ff3a000700370011
:100bd0000804440089844c000000480081804800db
:100be0008b05e9000442e900f9ff3a0093ff070092
:0c0bf0004f05be004f04be0000000600d0
:020000040000fa
:10000800ac020000ac020000ac020000ac02000030
:10001800ac020000ac020000ac020000ac02000020
:10002800ac020000ac020000ac020000ac02000010
:10003800ac020000ac020000ac020000ac02000000
:020000040000fa
:020000040000fa
:0200000401f009
:04001c00dfff000002
:020000040000fa
:0200000401f009
:0400180007000000dd
:020000040000fa
:0200000401f009
:040014005f00000089
:020000040000fa
:0200000401f009
:040010006300000089
:020000040000fa
:0200000401f009
:04000c00810000006f
:020000040000fa
:0200000401f009
:0400080007000000ed
:020000040000fa
:0200000401f009
:040000000f000000ed
:020000040000fa
:100bfc000000fa0099020700aa0207001d00070076
:100c0c000080fa00000006000000fa000000eb0073
:100c1c00b04588000400370000000000b04580009b
:100c2c000000e800b0458800b1458000300220008b
:100c3c00808f5000f8ff34000080fa00000006009e
:100c4c000000fa000000eb00b045880004003700fb
:100c5c0000000000b04580000000e800b0458800ae
:100c6c00b0458000f10f5000f9ff34000080fa000d
:100c7c00000006000000fa000000eb00c0458800f0
:100c8c00040037002b000700c04580000000e8007e
:100c9c00c0458800c0458000f30f5000f9ff3400b8
:100cac0080438000914380002afe070000007800fa
:100cbc0020458800c0438000d143800025fe0700fa
:100ccc00000078003045880000448000114480000a
:100cdc0020fe07000000780040458800404480005a
:100cec00514480001bfe070000007800504588002e
:100cfc00804480009144800016fe070000007800bc
:100d0c0060458800c0448000d144800011fe07007b
:100d1c000000780070458800004580001145800077
:100d2c000cfe070000007800804588000080fa0067
:100d3c00000006000000fa00889fbe00d6020700e3
:100d4c00000d200022030700bdff0700b0032000a8
:100d5c001f030700db020700100d20001c03070017
:100d6c00c922a900b6ff070010c0b300ed020700ae
:100d7c0050e8b70020c0b300ea02070051e8b70002
:100d8c0030c0b300e702070054e8b70040c0b3001e
:100d9c00e402070055e8b70050c0b300e1020700b9
:100dac0058e8b70060c0b300de02070059e8b7008e
:100dbc0070c0b300db0207005ce8b70080c0b30072
:100dcc00d80207005de8b70090c0b300d502070059
:100ddc0060e8b700a0c0b300d202070061e8b7001a
:100dec00b0c0b300cf02070064e8b700c0c0b300c6
:100dfc00cc02070065e8b700d0c0b300c9020700f9
:100e0c0068e8b7000040eb00c602070069e8b700cd
:100e1c00bb02070050c8bf00e04f500008003d0067
:100e2c0050c8bf000080fb000010b100c800dd00fe
:100e3c0051c8bf000080fb00008040000600370056
:100e4c0050c8bf000080fb00c800dd0051c8bf00c7
:100e5c000080fb00008040009042880054c8bf0016
:100e6c00e04f500008003d0054c8bf000080fb005c
:100e7c000010b100c800dd0055c8bf000080fb00a9
:100e8c00008040000600370054c8bf000080fb0003
:100e9c00c800dd0055c8bf000080fb00008040008a
:100eac00b042880058c8bf00e04f500008003d0019
:100ebc0058c8bf000080fb000010b100c800dd0066
:100ecc0059c8bf000080fb000080400006003700be
:100edc0058c8bf000080fb00c800dd0059c8bf0027
:100eec000080fb0000804000d04288005cc8bf003e
:100efc00e04f500008003d005cc8bf000080fb00c4
:100f0c000010b100c800dd005dc8bf000080fb0010
:100f1c0000804000060037005cc8bf000080fb006a
:100f2c00c800dd005dc8bf000080fb0000804000f1
:100f3c00f042880060c8bf00e04f500008003d0040
:100f4c0060c8bf000080fb000010b100c800dd00cd
:100f5c0061c8bf000080fb00008040000600370025
:100f6c0060c8bf000080fb00c800dd0061c8bf0086
:100f7c000080fb00008040001043880064c8bf0064
:100f8c00e04f500008003d0064c8bf000080fb002b
:100f9c000010b100c800dd0065c8bf000080fb0078
:100fac00008040000600370064c8bf000080fb00d2
:100fbc00c800dd0065c8bf000080fb000080400059
:100fcc003043880068c8bf00e04f500008003d0067
:100fdc0068c8bf000080fb000010b100c800dd0035
:100fec0069c8bf000080fb0000804000060037008d
:100ffc0068c8bf000080fb00c800dd0069c8bf00e6
:10100c000080fb000080400050438800d0458000e9
:10101c00e00f500037003a000000eb00b0458800ac
:10102c002d003700b045800080004000c0902000ab
:10103c00008040008000eb0001087800b045800083
:10104c008000400000922000008040008000eb00f7
:10105c0001087800b04580008000400040932000db
:10106c00008040008000eb0001087800b045800053
:10107c008000400080942000008040008000eb0045
:10108c0001087800b045800080004000c095200029
:10109c00008040008000eb0001087800b045800023
:1010ac008000400000972000008040008000eb0092
:1010bc0001087800b0458000800040004098200076
:1010cc00008040008000eb0001087800b0458000f3
:1010dc000000e800b0458800b14580005048800011
:1010ec00808f5000cfff3500d04580000000e80015
:1010fc00d04588000000eb00b04588005000370058
:10110c00b0458000b14580008100e80001814000bd
:10111c00c190200081004100910078000001400046
:10112c00c09020000000410001087800b04580000c
:10113c00b14580008100e80001814000019220004f
:10114c0081004100910078000001400000922000d5
:10115c000000410001087800b0458000b1458000d6
:10116c008100e80001814000419320008100410092
:10117c0091007800000140004093200000004100e5
:10118c0001087800b0458000b14580008100e8007e
:10119c000181400081942000810041009100780081
:1011ac0000014000809420000000410001087800fc
:1011bc00b0458000b14580008100e800018140000d
:1011cc00c195200081004100910078000001400091
:1011dc00c09520000000410001087800b045800057
:1011ec00b14580008100e80001814000019720009a
:1011fc008100410091007800000140000097200020
:10120c000000410001087800b0458000b145800025
:10121c008100e800018140004198200081004100dc
:10122c00910078000001400040982000000041002f
:10123c0001087800b04580000000e800b045880047
:10124c00504880008000e900b0458000808f50003d
:10125c00abff3c00504880000000e9009142800048
:10126c0000014000c09020000000410001087800ff
:10127c00504880000000e900b142800000014000ad
:10128c0000922000000041000108780050488000c6
:10129c000000e900d1428000000140004093200092
:1012ac000000410001087800504880000000e9006f
:1012bc00f1428000000140008094200000004100b9
:1012cc0001087800504880000000e90011438000bc
:1012dc0000014000c095200000004100010878008a
:1012ec00504880000000e9003143800000014000bc
:1012fc000097200000004100010878005048800051
:10130c000000e9005143800000014000409820009b
:10131c0000004100010878000000eb00b045880097
:10132c006c003700b045800080004000c090200069
:10133c000080400010007800cf80de00a6fc070083
:10134c000002be0060438000714380000001be00bb
:10135c000400be00a4fc07006043880071438800b1
:10136c00b0458000800040000092200000804000ca
:10137c0010007800cf80de0097fc07000002be0052
:10138c00a0438000b14380000001be000400be00f9
:10139c0095fc0700a0438800b1438800b04580004d
:1013ac008000400040932000008040001000780036
:1013bc00cf80de0088fc07000002be00e043800006
:1013cc00f14380000001be000400be0086fc070053
:1013dc00e0438800f1438800b04580008000400065
:1013ec00809420000080400010007800cf80de0048
:1013fc0079fc07000002be002044800031448000cc
:10140c000001be000400be0077fc070020448800e9
:10141c0031448800b045800080004000c095200019
:10142c000080400010007800cf80de006afc0700ce
:10143c000002be0060448000714480000001be00c8
:10144c000400be0068fc07006044880071448800fa
:10145c00b0458000800040000097200000804000d4
:10146c0010007800cf80de005bfc07000002be009d
:10147c00a0448000b14480000001be000400be0006
:10148c0059fc0700a0448800b1448800b045800096
:10149c008000400040982000008040001000780040
:1014ac00cf80de004cfc07000002be00e044800050
:1014bc00f14480000001be000400be004afc07009d
:1014cc00e0448800f1448800b04580000000e8004a
:1014dc00b0458800b145800050488000808f500096
:1014ec0090ff3500684380007943800050488000ad
:1014fc00cf80de0038fc07000001be000800be00f3
:10150c0096fc07008043880091438800a843800024
:10151c00b943800050488000cf80de002efc0700cd
:10152c000001be000800be008cfc0700c043880010
:10153c00d1438800e8438000f94380005048800084
:10154c00cf80de0024fc07000001be000800be00b6
:10155c0082fc070000448800114488002844800065
:10156c003944800050488000cf80de001afc070010
:10157c000001be000800be0078fc07004044880053
:10158c0051448800684480007944800050488000b1
:10159c00cf80de0010fc07000001be000800be007a
:1015ac006efc07008044880091448800a8448000a9
:1015bc00b944800050488000cf80de0006fc070054
:1015cc000001be000800be0064fc0700c044880097
:1015dc00d1448800e8448000f944800050488000e1
:1015ec00cf80de00fcfb07000001be000800be003f
:1015fc005afc070000458800114588006000b800bf
:10160c0060438800714388006000b800a0438800e4
:10161c00b14388006000b800e0438800f1438800c3
:10162c006000b80020448800314488006000b80095
:10163c0060448800714488006000b800a0448800b1
:10164c00b14488006000b800e0448800f144880090
:10165c004f04be000080fa00000006000000fa00f3
:10166c0062a0a90062c0a9006aa0a9006ac0a90072
:10167c00c805a900c885a90041368000f00f2e00ce
:10168c00008060004036880007e2a900c902a8006b
:10169c00cd02a900c922a800cd22a9000080fa0021
:1016ac00000006000400fa0057fd07007a0007004e
:1016bc00000d2000c600070061fd0700b0062000e9
:1016cc00c30007007f000700100d2000c0000700ba
:1016dc00c922a9005afd07000040eb009100070049
:1016ec00004f7800860007006b000700000d2000fb
:1016fc00b700070052fd070072000700000d200024
:10170c00b30007004efd0700b0062000b000070034
:10171c004bfd070010002000ad00070048fd07003e
:10172c00770007005c000700000d2000a8000700f0
:10173c0043fd0700b0012000a50007006100070071
:10174c00100d2000a2000700c922a9003cfd0700d3
:10175c000040eb007300070010479800680007007a
:10176c004d000700000d20009900070034fd070014
:10177c0054000700000d20009500070030fd070005
:10178c00b0012000920007002dfd07000000eb00c7
:10179c008f0007002afd0700590007003e000700d4
:1017ac00000d20008a00070025fd0700c001200065
:1017bc008700070043000700100d2000840007007d
:1017cc00c922a9001efd07000040eb0055000700d0
:1017dc00204798004a0007002f000700000d20004a
:1017ec007b00070016fd070036000700000d2000e7
:1017fc007700070012fd0700c001200074000700ed
:10180c000ffd07000000eb00710007000cfd070046
:10181c003b00070020000700000d20006c000700b3
:10182c0007fd0700b006200069000700250007002f
:10183c00100d200066000700c922a90000fd07005a
:10184c000040eb0037000700304798002c000700e1
:10185c0011000700000d20005d000700f8fc0700d8
:10186c0018000700000d200059000700f4fc0700c9
:10187c00b006200056000700f1fc07001000200005
:10188c0053000700eefc07001d000700defc0700fc
:10189c000080fa00000006000000fa00c922a8002f
:1018ac00e7fc0700c902a800e5fc0700c922a90053
:1018bc00e3fc0700c902a900e1fc07000080fa0064
:1018cc00000006000000fa00c922a900dcfc070099
:1018dc00dbfc0700c902a800d9fc0700c922a8003c
:1018ec00c9fc0700d6fc0700c922a900d4fc0700dc
:1018fc00c902a900d2fc07000080fa000000060013
:10190c000000fa00c922a900cdfc0700c902a800fa
:10191c00cbfc0700c922a800c9fc07000080fa0014
:10192c00000006000600fa00404798000000eb009b
:10193c0010079800c922a8000040eb00004f780067
:10194c00100037001e0090000000400010079800a7
:10195c00bbfc0700c902a800511680000020200023
:10196c0000806000e00f5000030032001e00900069
:10197c000000a00010079800b1fc0700c902a900e4
:10198c001e4fe8001e407800e74f5000edff34007a
:10199c004e409000e04f500002003200c922a900d6
:1019ac0001003700c922a800a5fc0700c902a80045
:1019bc00a3fc0700c902a900c922a800a0fc0700cb
:1019cc001e009000004078000080fa000000060025
:1019dc000400fa001007980080c0b300004f780094
:1019ec00100037009e00900000082000008060006e
:1019fc00e00f500002003200c922a800010037009d
:101a0c00c922a9008efc0700c902a8001e00900084
:101a1c00000040001007980089fc0700c902a900cb
:101a2c001e4fe9001e407800e04f5000edff3a00d9
:101a3c00c922a80082fc0700c902a8005016800029
:101a4c004900de0061406000b2e8b7007cfc070092
:101a5c00c902a900b2c8bf000080fa00000006004d
:101a6c000000a90000c0af000000a80000c0af003b
:101a7c000000060000a0af000000a80000a0af000e
:101a8c00000006000080af000000a8000080af003e
:101a9c00000006000060af000000a8000060af006e
:101aac00000006000040af000000a8000040af009e
:101abc00000006000020af000000a8000020af00ce
:101acc00000006000000af000000a80000000600a7
:101adc000000a90000c0af000000a80000c0af00cb
:101aec000000060000a0af000000a80000a0af009e
:101afc00000006000080af000000a8000080af00ce
:101b0c00000006000060af000000a8000060af00fd
:101b1c00000006000040af000000a8000040af002d
:101b2c00000006000020af000000a8000020af005d
:101b3c00000006000000af000000a8000000060036
:101b4c000000a90000c0af000000a80000c0af005a
:101b5c000000060000a0af000000a80000a0af002d
:101b6c00000006000080af000000a8000080af005d
:101b7c00000006000060af000000a8000060af008d
:101b8c00000006000040af000000a8000040af00bd
:101b9c00000006000020af000000a8000020af00ed
:101bac00000006000000af000000a80000000600c6
:101bbc000000a90000c0af000000a80000c0af00ea
:101bcc000000060000a0af000000a80000a0af00bd
:101bdc00000006000080af000000a8000080af00ed
:101bec00000006000060af000000a8000060af001d
:101bfc00000006000040af000000a8000040af004d
:101c0c00000006000020af000000a8000020af007c
:101c1c00000006000000af000000a8000000060055
:101c2c000000a90000c0af000000a80000c0af0079
:101c3c000000060000a0af000000a80000a0af004c
:101c4c00000006000080af000000a8000080af007c
:101c5c00000006000060af000000a8000060af00ac
:101c6c00000006000040af000000a8000040af00dc
:101c7c00000006000020af000000a8000020af000c
:101c8c00000006000000af000000a80000000600e5
:101c9c000000a90000c0af000000a80000c0af0009
:101cac000000060000a0af000000a80000a0af00dc
:101cbc00000006000080af000000a8000080af000c
:101ccc00000006000060af000000a8000060af003c
:101cdc00000006000040af000000a8000040af006c
:101cec00000006000020af000000a8000020af009c
:101cfc00000006000000af000000a8000000060075
:101d0c000000a90000c0af000000a80000c0af0098
:101d1c000000060000a0af000000a80000a0af006b
:101d2c00000006000080af000000a8000080af009b
:101d3c00000006000060af000000a8000060af00cb
:101d4c00000006000040af000000a8000040af00fb
:101d5c00000006000020af000000a8000020af002b
:101d6c00000006000000af000000a8000000060004
:101d7c0040062000000088000080bf0000a0b700d3
:101d8c000080bf0000a0b7000080bf0000a0b7001b
:101d9c000080bf0000a0b7000080bf0000a0b7000b
:101dac000080bf0000a0b700000006000000ae00dd
:101dbc00be0e0200000000000000ae000000a800f3
:101dcc00360d0200000000000000af000020ed0006
:101ddc000000ae00be0e0200000000006e0d0200fe
:101dec00000000000000af000020ed000000af007c
:101dfc00c442a8000000af00cc42a8000000ae0016
:101e0c00c442a9000000ae00cc42a900a60d0200fd
:101e1c00000000000000af000020ed000000af004b
:101e2c00c462a8000000af00cc62a8000000ae00a5
:101e3c00c462a9000000ae00cc62a900de0d020055
:101e4c00000000000000af000020ed000000af001b
:101e5c00cc82a8000000ae00cc82a900160e0200b5
:101e6c00000000000000af000020ed000000af00fb
:101e7c00cca2a8000000ae00cca2a9004e0e02001d
:101e8c00000000000000af000020ed000000af00db
:101e9c00ccc2a8000000ae00ccc2a900860e020085
:101eac00000000000000af000020ed000000af00bb
:101ebc00cce2a8000000ae00cce2a90000000600b5
:101ecc000000fa00f0072000b00e8800c842a900fc
:101edc00c862a900c882a900c8a2a900c8c2a900ea
:101eec00c8e2a900c042a900c062a9000080fa00a3
:101efc00000006000000fa00881f7800213a8000dc
:101f0c0000fe2f0000806000203a88009002200024
:101f1c00303a8800213a8000f0f32f0000806000f6
:101f2c00203a880000000000113a800000022000d6
:101f3c0000806000e00f5000fbff32000080eb00df
:101f4c006019880000a025002126200042f9070016
:101f5c0027fb0700d7000700d9ff0700c922a800fc
:101f6c0074fb0700f1000700eb000700cf80de00d8
:101f7c0099f9070018c0b300f2282c0053cf2300a6
:101f8c0038fa0700e00f500001003c000044eb0061
:101f9c00e04f540003003200c042a900c442a80024
:101fac00efff3700c042a900c442a900ecff370084
:101fbc000200fa000000eb00000f7800020037006e
:101fcc000e0007001e0fe8001e007800e00f500006
:101fdc00fbff34000080fa00000006000000fa004d
:101fec000080fa00000006000000fa00c042a900c0
:101ffc00c442a8000080fa00000006000200fa00ab
:10200c00c042a900c442a900c062a900c462a900d0
:10201c000000eb00000f7800110037002016800044
:10202c004200de006140600000c0ea0061406000d8
:10203c000080fb00610060004200dd002216800081
:10204c00b1ff2f0081006100008070002016880015
:10205c0000d0220011132000fff807001e0fe8002b
:10206c001e007800e70f5000ecff34000080fa00ef
:10207c00000006000200fa00c042a900c442a900f8
:10208c00c062a900c462a9000000eb00000f780038
:10209c0011003700201680004300de006140600014
:1020ac0000c0ea00614060000080fb00610060003d
:1020bc004300dd002216800071ff2f0081006100bb
:1020cc00008070002016880000d022001113200020
:1020dc00e1f807001e0fe8001e007800e70f500023
:1020ec00ecff34000080fa00000006000000fa004b
:1020fc00c062a900c462a8000080fa0000000600bb
:10210c000000fa00c042a900c442a800c062a900a5
:10211c00c462a8000080fa00000006000200fa0069
:10212c00c062a900c042a900c442a900c462a900af
:10213c000000eb00000f78001e0037002016800016
:10214c004200de006140600000c0ea0061406000b7
:10215c000080fb00610060004200dd002216800060
:10216c00b1ff2f00810061000080700020168800f4
:10217c0000d0220011132000b7f8070020168000b1
:10218c004300de006140600000c0ea006140600076
:10219c000080fb00610060004300dd00221680001f
:1021ac0071ff2f00810061000080700020168800f4
:1021bc001e0fe8001e007800e90f5000dfff34000e
:1021cc000080fa00000006000400fa0010079800d6
:1021dc00c042a900c062a900c442a900c462a900ff
:1021ec000000eb00000f78001e0037002016800066
:1021fc004200de006140600000c0ea006140600007
:10220c000080fb00610060004200dd0022168000af
:10221c00b1ff2f0081006100008070002016880043
:10222c00201680004300de006140600000c0ea0020
:10223c00614060000080fb00610060004300dd0035
:10224c002216800071ff2f00810061000080700059
:10225c002016880000d02200111320007ef8070001
:10226c001e0fe8001e0090009e007800808f50002a
:10227c00deff35000080fa00000006000000fa00c6
:10228c00c042a900c062a900c442a900c462a9004e
:10229c000080fa00000006000000fa00c042a9000d
:1022ac00c062a900c442a800c462a8000080fa0061
:1022bc00000006000000fa006000b800e04588004d
:1022cc00f14588006000b80000468800114688007f
:1022dc006000b80020468800314688006000b800d5
:1022ec00a0468800b14688006000b800c04688004f
:1022fc00d14688006000b800e0468800f1468800ae
:10230c0070712b0011952300c0478800d1478800bd
:10231c000080fa00000006000000fa00e045800092
:10232c00f14580000080fa00000006000000fa0071
:10233c00889fbe00804380009143800002002000f3
:10234c00134d240005f90700604788007147880089
:10235c006447800075478000c0478000d1478000eb
:10236c000001be000400be0040f907000002be00e0
:10237c00a0468000b14680000001be000400be00f3
:10238c0099f80700a0468800b1468800a446800052
:10239c00b5468000c0478000d14780000001be00d8
:1023ac000400be0031f907000004be006447800041
:1023bc0075478000c0478000d14780000001be00f7
:1023cc000400be0029f907000002be00c0478000cf
:1023dc00d14780000001be000400be0023f90700b5
:1023ec000200200003002400dcf807000001be00fe
:1023fc000800be007cf807000002be00e04580002b
:10240c00f14580000001be000400be0076f8070014
:10241c00e0458800f14588004f04be000080fa00ba
:10242c00000006000200fa000000eb00000f78002c
:10243c00f0032000303a8800213a8000f0f32f009e
:10244c0000806000203a8800213a800000fe2f00b6
:10245c0000806000203a88001200200080072000d5
:10246c00a10920003374200080497800814978004c
:10247c0082497800120020006004200071052000c1
:10248c0023742000804978008149780082497800c3
:10249c00103a8000103a80001e0fe8000080fa000d
:0424ac000000060026
:020000040000fa
:1024b0000c0900008c000000000000005008000023
:1024c0006c000000000000000a090000020000008b
:1024d000020000000a000000fc0800000e000000de
:1024e00000000000bc0800004000000000000000e8
:0424f00000000000e8
:020000040000fa
:1024f4000000fa0005e1a80005a1a8002108800059
:10250400f0fc2f00008060002008880004a1a900ce
:102514000421a90020ee2f00000888000080fa00a2
:10252400000006000000fa002c03a9002c23a900d7
:102534000080fa00000006000000fa000080fa00a3
:04254400000006008d
:00000001FF
