:020000040000fa
:080000000002040000000000f2
:020000040000fa
:100400004f9f20000eff20000e018800000000001a
:100410000c000700204a2100010020001f000700f7
:10042000000020000000e000020032000000020096
:100430000000000070110200000000000040da001f
:100440000000fe004440a900000020000000e00081
:100450000300320000002000a00188004440a800f2
:1004600000000600f03fb1000180b1000600350039
:10047000ee03090000000000403fb1000180b10020
:10048000fbff3d001000b000203fb000020035002f
:1004900000800900000000000000060091018800b3
:1004a000800078000000eb0015003700e28040007b
:1004b00032a0b4009101ba00e280400032a0b40042
:1004c0009102ba00e280400032a0b4000002eb00ca
:1004d000472bde00f507b200602ce10004003a0073
:1004e0000059eb008301e900fdff3e0004003700e6
:1004f0006128e100010032000082eb0004000700e7
:100500001101ba000200e000e8ff3a000000060016
:100510003159ba008301e9000c0032002159ba00b8
:100520008301e900080032000400e00003003a0003
:10053000e280400032a0b400f5ff370011d9ba00c4
:100540008301e900faff3a008100e800e180400001
:1005500032a0b400000006000040da000000fe00f7
:10056000f4ff2f00fa003700889fbe008a9fbe006c
:100570008c1f7800110107001801330003866c00fe
:100580006450e1002e0032006420e10033003200ac
:100590006150e1002f0032006120e10031003200a3
:1005a00085855500eb07b0000900200008042000f5
:1005b000050037000804440089844c000a0031001b
:1005c0000603430087834b000001530081815b00d9
:1005d000f8ff33000203be000800a0000804440036
:1005e00089844c00f6ff3900c639dd0083017300b1
:1005f00001003200130020008904d1000884d300d8
:100600000998a300050032000800a7000300a0001d
:100610008904d1000884d3008b05e8008904d10047
:100620000884d3000001eb000281d200fb00070028
:1006300001f0a1000cf0a70001f0a000f0003700cd
:100640006420e100f20032000801be000200be009a
:10065000f7ff37006120e100ed0032006000b800d4
:10066000f3ff37000000200001f82700f0ff3700fb
:10067000889fbe008a9fbe008c1f7800cf000700b5
:10068000d600330003866c006450e1002400320081
:100690006420e100270032006150e10022003200b6
:1006a0006120e100210032008b854200eb07b100a0
:1006b0000134b800003ab8000804420089844a00b6
:1006c000013ab8000030b8008880400009014a00b3
:1006d000040033000000400081804800020149000e
:1006e0008b05e900c909dd008301700001003200bb
:1006f00013002000c814de004814dd004709de00a6
:100700001200b200c808de0008847000c3000700b1
:1007100001f0a1000cf0a70001f0a000b800370024
:100720006120e100ba0032000801be000200be00f4
:10073000f7ff37006150e100fcff3a00b4003700da
:1007400003f0a200889fbe008a9fbe008c1f780025
:100750009a000700a10033006450e1004f0032000e
:100760006420e1005200320003826c0007003b006d
:100770000905d0000306d000820f54000c065d006e
:100780000200390002003200890178000306780077
:100790008582550004003d000003fd008103fd003b
:1007a0008502ea008b854200840f720002003b0044
:1007b00060001000e08018006011b8000005eb0038
:1007c0007a28e1000a00390006007800c75ddd00e4
:1007d000f707b200878075002d0037008281710015
:1007e0000a017800610560008180d1000080d3009b
:1007f0008502e900f9ff3b000604400087844800b9
:1008000002003b0060041400e0841c000988a3007f
:10081000070032008a8171008281710061016400e9
:100820008904d1000884d3008b05e8001700370045
:100830000978a30013003a000b00e0001300340015
:100840008b05e9000804440089844c000a447400c4
:100850000978a3000d003a000b00e0000700340007
:100860008b05e9000804440089844c0001003a002b
:100870000b0020000978a300f7ff32000001eb0015
:1008800002003700828171000a01780063000700ce
:100890000cf0a70001f0a000590037006420e1002f
:1008a00002003a00838f6c00590033000801be003b
:1008b0000200be00520037000001eb007d0037004f
:1008c0000001be00e40007000470a70003f0a100cf
:1008d0006509b100160032000d0035006828e100fe
:1008e00006003500f0ff2f00f1ff27000300e000b5
:1008f00013003b000100280000000500000040003c
:10090000818048008502e900fcff3a0008003700ba
:10091000f88f420002003c008000eb000000050060
:100920008100d1000080d3008502e800fcff3a007e
:100930000300e00002003b0060001000e0801800af
:10094000000006004f89de0082017800d7003700e2
:10095000889fbe008a9fbe00841f78001700070092
:100960004f00780011003300f0ff2f00838f6c00e0
:1009700006003b00040565000a00a70008003700d8
:1009800009f0a6001000200008003700820f540074
:10099000838f5c00030039001000200001003e003e
:1009a0000000200009f0a7000000ea004f05be008b
:1009b0004f04be000000e000000006000004be007e
:1009c000a50007000003be000405be000200be0033
:1009d000a1000700844f7500000006000200be0061
:1009e0006450e100050036006420e100020036009a
:1009f0000968a30001003a000800be000160a000e1
:100a00004f0678004f05be004f04be0000000600f0
:100a1000f0ff2f00f1ff2700f9ff370081002000d1
:100a2000618055000b003d000b00200061fe2f008f
:100a30000100e1001d003400828171006101640049
:100a40008904d1000884d3000000e800faff3a00ce
:100a5000710020006100640003007000020060006b
:100a60000900320061044400e0844c000988a500bc
:100a7000050032008b05e8006808e10002003a003a
:100a80008904d1000884d300f20f20000258e1004d
:100a900005003d00c75ddd00f907b20089807500e3
:100aa00008007800000006000bf827008b00780093
:100ab00000000500889fbe008a9fbe008c9fbe007c
:100ac000820578000004be00630007000800be0035
:100ad0006420e1000700390002003a00f1ff27001e
:100ae000f0ff2f000160a00012022000424e88009b
:100af000550037006120e10003003a000b00a70019
:100b000001f823005000370001f0a100020021008d
:100b100093642400750007000800be00040035003f
:100b2000b2fd2000930c2400720007000004be00f8
:100b30000005eb000b00a6004f0dde0001f0a10048
:100b40000004be0032982f0023ea2300c8fe0700ed
:100b50000001eb0003f023000b00a70003f82300c3
:100b6000f8fe070056ff07000000a7000a00a200d9
:100b700074ff07000b00e0000300320002002000b9
:100b800003f02300eefe070001f0a2000006be0005
:100b90000200200093042400b5fe07000801be00f7
:100ba000e8fe0700809fbe000c00be0022a22a00c3
:100bb000d3a72300aefe07004f01be00e1fe0700f1
:100bc0000004be0001f0a1000200200003982300f1
:100bd000460007000800be00190035000001be00f5
:100be000a3fe07000006be00b2c52900e362230091
:100bf0009ffe070022222b00f3942b00d1fe07005a
:100c00000c01be009afe0700e273280083c0230097
:100c1000ccfe07000c01be0095fe070042aa2a0088
:100c2000a3e22b00c7fe07000c01be0090fe0700e8
:100c30000801be008efe07000801be00c1fe0700cd
:100c40000a00a70001f0a2004f06be004f05be003b
:100c50004f04be0000000600c70ade00f107b20024
:100c6000f50fb20008003200e1cf4200020032006e
:100c70000170a00024000500810f70000100320007
:100c80000408050044000500810f700002003a00ce
:100c9000140005008502e9000000400081c0480002
:100ca000fcff3b000170a00024000500881f7800b5
:100cb000030478000300e00007003d00600010001e
:100cc000e080180060011900e081190002003b007b
:100cd00001f02d00030037000800070008f0a7000e
:100ce00001f0a0004f04780000000600140020006e
:100cf00017ff3700040020002f003700889fbe0038
:100d00008a9fbe000082700004027100048271009c
:100d1000260032000004be000200be006011b800d0
:100d20006b092000950220000182cf000a003900e3
:100d30000541b1000082cf00070039000541b10034
:100d40000982cf00040039000541b1000882cf00bc
:100d5000010039000541b100054252001200320085
:100d60000a003b0082817100610164008100d100b2
:100d70000080d3008984d3000884d3008b05e80069
:100d80000442e800f7ff3a00070037000804440077
:100d900089844c0000004800818048008b05e900f0
:100da0000442e900f9ff3a001cff07004f05be00ae
:100db0004f04be0000000600889fbe008a9fbe0050
:100dc0008c1f78004f26dd00fcfe070003ff330078
:100dd0006120e100430032006250e10041003e002a
:100de0003e0039006420e1003c00320005825500dd
:100df0000f003b000402e80038003a00800f530067
:100e0000818f5b00350034000800be0003f0a100b4
:100e100001f0a60003f0a0000cf0a70049fe0700b7
:100e2000f7fe37000603430087834b000c4646005d
:100e30000005530081855b00020033000a03be00f9
:100e40000c00a0000402e900f6ff3b0085057800d5
:100e50000602430087824b0004003a006000b8009d
:100e600009f0a70001f0a000e5fe370000025200e3
:100e700081825a000704e0000400330006034300a7
:100e800087834b008b05e900faff370009057800de
:100e90000604be000203be006011b800dffe0700ba
:100ea000e00f5200e08f5a000700350002003c00be
:100eb0000c08a300040032000601be0003f0a000ed
:100ec0000cf0a7001ffe07000a85680001f0a100d2
:100ed0000af0a70001f0a000c9fe37000800be001c
:100ee000c7fe3700100220000cf0a600404e88001c
:040ef000c7fe370002
:020000040000fa
:10000800ac020000ac020000ac020000ac02000030
:10001800ac020000ac020000ac020000ac02000020
:10002800ac020000ac020000ac020000d2140000d8
:10003800ac020000ac020000ac020000ac02000000
:10004800ac020000ac020000ac020000ac020000f0
:10005800ac020000ac020000ac020000ac020000e0
:10006800ac020000ac020000ac020000ac020000d0
:10007800ac020000ac020000ac020000ac020000c0
:10008800ac020000ac020000ac020000ac020000b0
:10009800ac020000ac020000ac020000ac020000a0
:1000a800ac020000ac020000ac020000ac02000090
:1000b800ac020000ac020000ac020000ac02000080
:1000c800ac020000ac020000ac020000ac02000070
:1000d800ac020000ac020000ac020000ac02000060
:1000e800ac020000ac020000ac020000ac02000050
:1000f800ac020000ac020000ac020000ac02000040
:10010800ac020000ac020000ac020000ac0200002f
:10011800ac020000ac020000ac020000ac0200001f
:10012800ac020000ac020000ac020000ac0200000f
:10013800ac020000ac020000ac020000ac020000ff
:10014800ac020000ac020000ac020000ac020000ef
:10015800ac020000ac020000ac020000ac020000df
:10016800ac020000ac020000ac020000ac020000cf
:10017800ac020000ac020000ac020000ac020000bf
:10018800ac020000ac020000ac020000ac020000af
:10019800ac020000ac020000ac020000ac0200009f
:1001a800ac020000ac020000ac020000ac0200008f
:1001b800ac020000ac020000ac020000ac0200007f
:1001c800ac020000ac020000ac020000ac0200006f
:1001d800ac020000ac020000ac020000ac0200005f
:1001e800ac020000ac020000ac020000ac0200004f
:0801f800ac020000ac020000a3
:020000040000fa
:10020800ac020000ac020000ac020000ac0200002e
:10021800ac020000ac020000ac020000ac0200001e
:10022800ac020000ac020000ac020000d2140000d6
:10023800ac020000ac020000ac020000ac020000fe
:10024800ac020000ac020000ac020000ac020000ee
:10025800ac020000ac020000ac020000ac020000de
:10026800ac020000ac020000ac020000ac020000ce
:10027800ac020000ac020000ac020000ac020000be
:10028800ac020000ac020000ac020000ac020000ae
:10029800ac020000ac020000ac020000ac0200009e
:1002a800ac020000ac020000ac020000ac0200008e
:1002b800ac020000ac020000ac020000ac0200007e
:1002c800ac020000ac020000ac020000ac0200006e
:1002d800ac020000ac020000ac020000ac0200005e
:1002e800ac020000ac020000ac020000ac0200004e
:1002f800ac020000ac020000ac020000ac0200003e
:10030800ac020000ac020000ac020000ac0200002d
:10031800ac020000ac020000ac020000ac0200001d
:10032800ac020000ac020000ac020000ac0200000d
:10033800ac020000ac020000ac020000ac020000fd
:10034800ac020000ac020000ac020000ac020000ed
:10035800ac020000ac020000ac020000ac020000dd
:10036800ac020000ac020000ac020000ac020000cd
:10037800ac020000ac020000ac020000ac020000bd
:10038800ac020000ac020000ac020000ac020000ad
:10039800ac020000ac020000ac020000ac0200009d
:1003a800ac020000ac020000ac020000ac0200008d
:1003b800ac020000ac020000ac020000ac0200007d
:1003c800ac020000ac020000ac020000ac0200006d
:1003d800ac020000ac020000ac020000ac0200005d
:1003e800ac020000ac020000ac020000ac0200004d
:0803f800ac020000ac020000a1
:020000040000fa
:0200000401f009
:04001c00dfff000002
:020000040000fa
:0200000401f009
:0400180007000000dd
:020000040000fa
:0200000401f009
:040014005f00000089
:020000040000fa
:0200000401f009
:040010006300000089
:020000040000fa
:0200000401f009
:04000c00810000006f
:020000040000fa
:0200000401f009
:0400080007000000ed
:020000040000fa
:0200000401f009
:040000000f000000ed
:020000040000fa
:100ef4000000fa00a0020700b10207000a00070080
:100f04000080fa00000006000000fa000000000063
:100f14000080fa00000006000000fa000000000053
:100f24000080fa00000006000000fa000000eb0058
:100f340010478800040037002b000700104780008a
:100f44000000e8001047880010478000f30f5000ad
:100f5400f9ff3400404880005148800057fe0700e4
:100f640000007800104a8800804880009148800082
:100f740052fe070000007800204a8800c048800024
:100f8400d14880004dfe070000007800304a8800f8
:100f9400304980004149800048fe07000000780085
:100fa400404a8800704980008149800043fe070060
:100fb40000007800504a8800b0498000c149800090
:100fc4003efe070000007800604a8800f049800077
:100fd400014a800039fe070000007800704a88004a
:100fe4000080fa00000006000000fa00889fbe009e
:100ff400f0020700000d20003c030700c6ff0700b5
:10100400b003200039030700f5020700100d20008b
:1010140036030700c922a900bfff070010c0b300b0
:1010240007030700e7e8b70020c0b3000403070084
:10103400e8e8b70030c0b30001030700ece8b700ec
:1010440040c0b300fe020700ede8b70050c0b30093
:10105400fb020700f0e8b70060c0b300f802070025
:10106400f1e8b70070c0b300f5020700f4e8b70078
:1010740080c0b300f2020700f5e8b70090c0b300e7
:10108400ef020700f8e8b700a0c0b300ec020700c5
:10109400f9e8b700b0c0b300e9020700fce8b70004
:1010a400c0c0b300e6020700fde8b700d0c0b3003b
:1010b400e302070000e9b7000040eb00e00207008c
:1010c40001e9b700d5020700e7c8bf00e04f5000b0
:1010d40008003d00e7c8bf000080fb000010b1001d
:1010e400c800dd00e8c8bf000080fb0000804000ad
:1010f40006003700e7c8bf000080fb00c800dd0021
:10110400e8c8bf000080fb00008040005047880012
:10111400ecc8bf00e04f500008003d00ecc8bf0021
:101124000080fb000010b100c800dd00edc8bf0066
:101134000080fb000080400006003700ecc8bf00c0
:101144000080fb00c800dd00edc8bf000080fb008c
:101154000080400070478800f0c8bf00e04f500096
:1011640008003d00f0c8bf000080fb000010b10083
:10117400c800dd00f1c8bf000080fb000080400013
:1011840006003700f0c8bf000080fb00c800dd0087
:10119400f1c8bf000080fb00008040009047880039
:1011a400f4c8bf00e04f500008003d00f4c8bf0081
:1011b4000080fb000010b100c800dd00f5c8bf00ce
:1011c4000080fb000080400006003700f4c8bf0028
:1011d4000080fb00c800dd00f5c8bf000080fb00f4
:1011e40000804000b0478800f8c8bf00e04f5000be
:1011f40008003d00f8c8bf000080fb000010b100eb
:10120400c800dd00f9c8bf000080fb00008040007a
:1012140006003700f8c8bf000080fb00c800dd00ee
:10122400f9c8bf000080fb0000804000d047880060
:10123400fcc8bf00e04f500008003d00fcc8bf00e0
:101244000080fb000010b100c800dd00fdc8bf0035
:101254000080fb000080400006003700fcc8bf008f
:101264000080fb00c800dd00fdc8bf000080fb005b
:1012740000804000f047880000c9bf00e04f5000e4
:1012840008003d0000c9bf000080fb000010b10051
:10129400c800dd0001c9bf000080fb0000804000e1
:1012a4000600370000c9bf000080fb00c800dd0055
:1012b40001c9bf000080fb00008040001048880086
:1012c40020478000e00f500040003a000000eb008f
:1012d4000047880036003700004780008000400047
:1012e40040852000008040008000eb000108780069
:1012f400004780008000400080862000008040007d
:101304008000eb0001087800004780008000400066
:10131400c0872000008040008000eb0001087800b6
:1013240000478000800040000089200000804000c9
:101334008000eb0001087800004780008000400036
:10134400408a2000008040008000eb000108780003
:101354000047800080004000808b20000080400017
:101364008000eb0001087800004780008000400006
:10137400c08c2000008040008000eb000108780051
:101384006000b80040488800514888006000b800f8
:1013940080488800914888006000b800c0488800f0
:1013a400d1488800004780000000e800004788001a
:1013b40001478000304e8000808f5000c6ff35000a
:1013c400204780000000e800204788000000eb0070
:1013d4000047880050003700004780000147800024
:1013e4008100e80001814000418520008100410026
:1013f4009100780000014000408520000000410079
:101404000108780000478000014780008100e8005f
:101414000181400081862000810041009100780014
:10142400000140008086200000004100010878008f
:1014340000478000014780008100e80001814000ee
:10144400c187200081004100910078000001400024
:10145400c087200000004100010878000047800098
:10146400014780008100e8000181400001892000db
:1014740081004100910078000001400000892000b3
:101484000000410001087800004780000147800007
:101494008100e80001814000418a20008100410070
:1014a4009100780000014000408a200000004100c3
:1014b4000108780000478000014780008100e800af
:1014c40001814000818b200081004100910078005f
:1014d40000014000808b20000000410001087800da
:1014e40000478000014780008100e800018140003e
:1014f400c18c20008100410091007800000140006f
:10150400c08c2000000041000108780000478000e2
:101514000000e80000478800304e80008000e900a9
:1015240000478000808f5000abff3c00304e8000ad
:101534000000e90051478000000140004085200080
:101544000000410001087800304e80000000e900ee
:1015540071478000000140008086200000004100a7
:1015640001087800304e80000000e90091478000b7
:1015740000014000c08720000000410001087800fd
:10158400304e80000000e900b147800000014000b7
:10159400008920000000410001087800304e8000de
:1015a4000000e900d147800000014000408a20008b
:1015b4000000410001087800304e80000000e9007e
:1015c400f147800000014000808b200000004100b2
:1015d40001087800304e80000000e90011488000c6
:1015e40000014000c08c2000000041000108780088
:1015f4000000eb00000888000000eb0000478800b2
:101604006c003700004780008000400040852000c7
:101614000080400010007800cf80de00c8fc070086
:101624000002be0020488000314880000001be0056
:101634000400be0042fc07002048880031488800ae
:101644000047800080004000808620000080400029
:1016540010007800cf80de00b9fc07000002be0055
:1016640060488000714880000001be000400be0094
:1016740033fc0700604888007148880000478000f8
:1016840080004000c08720000080400010007800e7
:10169400cf80de00aafc07000002be00a048800044
:1016a400b14880000001be000400be0024fc070015
:1016b400a0488800b14888000047800080004000ae
:1016c400008920000080400010007800cf80de00f8
:1016d4009bfc07000002be001049800021498000e5
:1016e4000001be000400be0015fc0700104988007c
:1016f400214988000047800080004000408a200083
:101704000080400010007800cf80de008cfc0700d1
:101714000002be0050498000614980000001be0003
:101724000400be0006fc0700504988006149880097
:101734000047800080004000808b20000080400033
:1017440010007800cf80de007dfc07000002be00a0
:1017540090498000a14980000001be000400be0041
:10176400f7fb070090498800a149880000478000e2
:1017740080004000c08c20000080400010007800f1
:10178400cf80de006efc07000002be00d04980005e
:10179400e14980000001be000400be00e8fb070030
:1017a400d0498800e1498800004780000000e80033
:1017b4000047880001478000304e8000808f500031
:1017c40090ff350040488000514880003bfc0700f2
:1017d40000007800e048880080488000914880003c
:1017e40036fc070000007800f0488800c0488000fc
:1017f400d148800031fc07000000780000498800cf
:101804002848800039488000304e8000cf80de00b8
:101814004bfc07000001be000800be0051fb07009e
:101824004048880051488800684880007948800012
:10183400304e8000cf80de0041fc07000001be0076
:101844000800be0047fb07008048880091488800d4
:10185400a8488000b9488000304e8000cf80de0068
:1018640037fc07000001be000800be003dfb070076
:10187400c0488800d1488800184980002949800060
:10188400304e8000cf80de002dfc07000001be003a
:101894000800be0033fb0700304988004149880036
:1018a4005849800069498000304e8000cf80de00b6
:1018b40023fc07000001be000800be0029fb07004e
:1018c400704988008149880098498000a9498000ae
:1018d400304e8000cf80de0019fc07000001be00fe
:1018e4000800be001ffb0700b0498800c1498800fa
:1018f400d8498000e9498000304e8000cf80de0066
:101904000ffc07000001be000800be0015fb070025
:10191400f0498800014a88006000b8002048880027
:10192400314888006000b800604888007148880029
:101934006000b800a0488800b14888006000b80082
:1019440010498800214988006000b8005049880087
:10195400614988006000b80090498800a149880066
:101964006000b800d0498800e14988004f04be00f7
:101974000080fa00000006000000fa0062a0a9003e
:1019840062c0a9006aa0a9006ac0a900c805a9008c
:10199400c885a90041368000f00f2e000080600049
:1019a4004036880007e2a900c902a800cd02a900b8
:1019b400c922a800cd22a9000080fa000000060078
:1019c4000400fa0050fd07007a000700000d200013
:1019d400c600070050fd0700b0062000c300070042
:1019e4007f000700100d2000c0000700c922a900d5
:1019f40049fd07000040eb0091000700004f78000c
:101a0400860007006b000700000d2000b7000700e8
:101a140041fd070072000700000d2000b30007001d
:101a24003dfd0700b0062000b00007003afd0700a6
:101a340010002000ad00070037fd07007700070005
:101a44005c000700000d2000a800070032fd07001d
:101a5400b0012000a500070061000700100d200060
:101a6400a2000700c922a9002bfd07000040eb00db
:101a74007300070010479800680007004d00070036
:101a8400000d20009900070023fd07005400070003
:101a9400000d2000950007001ffd0700b001200085
:101aa400920007001cfd07000000eb008f000700f8
:101ab40019fd0700590007003e000700000d200033
:101ac4008a00070014fd0700c001200087000700fa
:101ad40043000700100d200084000700c922a9005c
:101ae4000dfd07000040eb0055000700204798005b
:101af4004a0007002f000700000d20007b000700ac
:101b040005fd070036000700000d200077000700e0
:101b140001fd0700c001200074000700fefc07005f
:101b24000000eb0071000700fbfc07003b0007000e
:101b340020000700000d20006c000700f6fc0700e1
:101b4400b00620006900070025000700100d2000e2
:101b540066000700c922a900effc07000040eb0063
:101b640037000700304798002c00070011000700d9
:101b7400000d20005d000700e7fc070018000700c7
:101b8400000d200059000700e3fc0700b006200008
:101b940056000700e0fc0700100020005300070077
:101ba400ddfc07001d000700d7fc07000080fa00d9
:101bb400000006000000fa00c922a800d6fc0700b5
:101bc400c902a800d4fc0700c922a900d2fc07005e
:101bd400c902a900d0fc07000080fa00000006003a
:101be4000000fa00c922a900cbfc0700cafc0700c8
:101bf400c902a800c8fc0700c922a800c2fc07004b
:101c0400c5fc0700c922a900c3fc0700c902a9003a
:101c1400c1fc07000080fa00000006000000fa0082
:101c2400c922a900bcfc0700c902a800bafc07002d
:101c3400c922a800b8fc07000080fa0000000600d2
:101c44000600fa00404798000000eb0010079800d7
:101c5400c922a8000040eb00004f780010003700b4
:101c64001e0090000000400010079800aafc070026
:101c7400c902a800511680000020200000806000e6
:101c8400e00f5000030032001e0090000000a0008e
:101c940010079800a0fc0700c902a9001e4fe80025
:101ca4001e407800e74f5000edff34004e40900096
:101cb400e04f500002003200c922a90001003700a1
:101cc400c922a80094fc0700c902a80092fc0700de
:101cd400c902a900c922a8008ffc07001e009000b9
:101ce400004078000080fa00000006000400fa00ba
:101cf4001007980080c0b300004f78001000370030
:101d04009e0090000008200000806000e00f50005a
:101d140002003200c922a80001003700c922a9002c
:101d24007dfc0700c902a8001e00900000004000ce
:101d34001007980078fc0700c902a9001e4fe900ab
:101d44001e407800e04f5000edff3a00c922a80081
:101d540071fc0700c902a800501680004900de008b
:101d64006140600050e8b7006bfc0700c902a9009d
:101d740050c8bf000080fa00000006000000fa000e
:101d84006000b800f04a8800014b88006000b80089
:101d9400104b8800214b88006000b800304b88004d
:101da400414b88006000b800704c8800814c88006a
:101db4006000b800904c8800a14c88006000b80016
:101dc400b04c8800c14c8800f026210031a82300c3
:101dd400f04d8800014e88000080fa0000000600e3
:101de4000000fa00889fbe0070498000814980008d
:101df40002e02f00f36f2400daf90700020020004c
:101e0400a337240019fa07000002be00f04d800039
:101e1400014e80000001be000400be0013fa07005a
:101e24000002be00b04b8000c14b80000001be0028
:101e34000400be0042fa0700b04b8800c14b880082
:101e4400b04b8000c14b800022952400d3a1230015
:101e54003afa0700b04b8800c14b8800b0498000b3
:101e6400c149800002e02f00f36f2400bdf9070090
:101e740002002000a3372400fcf907000002be0082
:101e8400f04d8000014e80000001be000400be0041
:101e9400f6f907000002be00d04b8000e14b800041
:101ea4000001be000400be0025fa0700d04b8800e4
:101eb400e14b8800f0498000014a800002e02f00d5
:101ec400f36f2400a7f9070002002000a3372400c1
:101ed400e6f907000002be00f04d8000014e8000cc
:101ee4000001be000400be00e0f907000002be00cd
:101ef400f04b8000014c80000001be000400be00d5
:101f04000ffa0700f04b8800014c88004848800015
:101f140059488000b04b8000c14b8000b2fd2000c6
:101f240093042400d1f90700020020004333240065
:101f34008cf907005ffa0700020020000300240068
:101f440088f9070002e02f00f36f2400c7f90700a7
:101f54000001be000800be00f8f90700304d8800fb
:101f6400414d8800304d8000414d8000020020002a
:101f7400134d24007bf907000002be00f04d8000e1
:101f8400014e80000001be000400be00b7f9070046
:101f94000002be00704c8000814c80000001be0035
:101fa4000400be00e6f90700704c8800814c8800ec
:101fb400744c8000854c8000f04d8000014e800000
:101fc4000001be000400be00a8f907000004be0022
:101fd400344d8000454d8000f04d8000014e80005e
:101fe4000001be000400be00a0f907000002be000c
:101ff400f04d8000014e80000001be000400be00d0
:102004009af90700020020000300240055f9070094
:102014000001be000800be00c9f907000002be00ae
:10202400f04a8000014b80000001be000400be00a5
:10203400c3f90700f04a8800014b880088488000f3
:1020440099488000d04b8000e14b8000b2fd200015
:102054009304240085f90700020020004333240080
:1020640040f9070013fa07000200200003002400cf
:102074003cf9070002e02f00f36f24007bf907000e
:102084000001be000800be00acf90700504d8800f6
:10209400614d8800504d8000614d80000200200099
:1020a400134d24002ff907000002be00f04d8000fc
:1020b400014e80000001be000400be006bf9070061
:1020c4000002be00904c8000a14c80000001be00c4
:1020d4000400be009af90700904c8800a14c8800c7
:1020e400944c8000a54c8000f04d8000014e80008f
:1020f4000001be000400be005cf907000004be003d
:10210400544d8000654d8000f04d8000014e8000ec
:102114000001be000400be0054f907000002be0026
:10212400f04d8000014e80000001be000400be009e
:102134004ef90700020020000300240009f90700fb
:102144000001be000800be007df907000002be00c9
:10215400104b8000214b80000001be000400be0033
:1021640077f90700104b8800214b8800c84880008d
:10217400d9488000f04b8000014c8000b2fd200063
:102184009304240039f9070002002000433324009b
:10219400f4f80700c7f90700020020000300240038
:1021a400f0f8070002e02f00f36f24002ff9070076
:1021b4000001be000800be0060f90700704d8800f1
:1021c400814d8800704d8000814d80000200200008
:1021d400134d2400e3f807000002be00f04d800018
:1021e400014e80000001be000400be001ff907007c
:1021f4000002be00b04c8000c14c80000001be0053
:102204000400be004ef90700b04c8800c14c8800a1
:10221400b44c8000c54c8000f04d8000014e80001d
:102224000001be000400be0010f907000004be0057
:10223400744d8000854d8000f04d8000014e80007b
:102244000001be000400be0008f907000002be0041
:10225400f04d8000014e80000001be000400be006d
:1022640002f907000200200003002400bdf8070063
:102274000001be000800be0031f907000002be00e4
:10228400304b8000414b80000001be000400be00c2
:102294002bf90700304b8800414b8800104e80001a
:1022a4000000e800104e88004f04be000080fa00d1
:1022b400000006000000fa00f04a8000014b800094
:1022c4000080fa00000006000200fa00004f7800c7
:1022d4006000b8000080fa00000006000000fa0068
:1022e400881f7800213a800000fe2f0000806000e3
:1022f400203a880090022000303a8800213a800079
:10230400f0f32f0000806000203a880000000000f5
:10231400113a80000002200000806000e00f5000ad
:10232400fbff32000080eb006019880000d022001f
:10233400111320004af80700edfa07008ffe07008a
:10234400b60107005e010700a6010700c04880002f
:10235400d148800018c0b3006011b8007ff80700ae
:10236400e00f500001003c000044eb00e04f54003b
:1023740003003200c042a900c442a8000200370092
:10238400c042a900c442a900f0498000014a80006b
:1023940018c0b3006011b80070f80700e00f5000d7
:1023a40001003c000044eb00e04f54000300320005
:1023b400c062a900c462a800e4ff3700c062a9009b
:1023c400c462a900e1ff37000200fa000000eb003c
:1023d400000f7800020037000e0007001e0fe8000f
:1023e4001e007800e00f5000fbff34000080fa006c
:1023f400000006000000fa000080fa000000060059
:102404000000fa00c042a900c442a8000080fa00fb
:10241400000006000200fa00c042a900c442a9005c
:10242400c062a900c462a9000000eb00000f78009c
:1024340011003700201680004200de006140600079
:1024440000c0ea00614060000080fb0061006000a1
:102454004200dd0022168000b1ff2f0081006100e0
:10246400008070002016880000d022001113200084
:10247400fbf707001e0fe8001e007800e70f50006e
:10248400ecff34000080fa00000006000200fa00ad
:10249400c042a900c442a900c062a900c462a90044
:1024a4000000eb00000f78001100370020168000b8
:1024b4004300de006140600000c0ea00614060004b
:1024c4000080fb00610060004300dd0022168000f4
:1024d40071ff2f00810061000080700020168800c9
:1024e40000d0220011132000ddf707001e0fe800c2
:1024f4001e007800e70f5000ecff34000080fa0063
:10250400000006000000fa00c062a900c462a8002e
:102514000080fa00000006000000fa00c042a90092
:10252400c442a800c062a900c462a8000080fa00e6
:10253400000006000200fa00c062a900c042a9001f
:10254400c442a900c462a9000000eb00000f780097
:102554001e003700201680004200de00614060004b
:1025640000c0ea00614060000080fb006100600080
:102574004200dd0022168000b1ff2f0081006100bf
:10258400008070002016880000d022001113200063
:10259400b3f70700201680004300de0061406000ae
:1025a40000c0ea00614060000080fb006100600040
:1025b4004300dd002216800071ff2f0081006100be
:1025c40000807000201688001e0fe8001e007800ae
:1025d400e90f5000dfff34000080fa00000006001d
:1025e4000400fa0010079800c042a900c062a900c4
:1025f400c442a900c462a9000000eb00000f7800e7
:102604001e003700201680004200de00614060009a
:1026140000c0ea00614060000080fb0061006000cf
:102624004200dd0022168000b1ff2f00810061000e
:102634000080700020168800201680004300de0011
:102644006140600000c0ea00614060000080fb005f
:10265400610060004300dd002216800071ff2f003e
:1026640081006100008070002016880000d02200e4
:10267400111320007af707001e0fe8001e009000d7
:102684009e007800808f5000deff35000080fa0045
:10269400000006000000fa00c042a900c062a900c0
:1026a400c442a900c462a9000080fa000000060028
:1026b4000000fa00c042a900c062a900c442a800f8
:1026c400c462a8000080fa0000000600e209a90024
:1026d400204f8000010020000180e700e209a800eb
:1026e40000000600e609a900b04e800001002000a9
:1026f4000180e700e609a80000000600e809a90037
:10270400c04e8000010020000180e700e809a80015
:1027140000000600ea09a900d04e80000100200054
:102724000180e700ea09a80000000600ec09a900fe
:10273400e04e8000010020000180e700ec09a800c1
:1027440000000600ee09a900f04e80000100200000
:102754000180e700ee09a80000000600f009a900c6
:10276400004f8000010020000180e700f009a8006c
:1027740000000600f209a80040062000204f88004f
:10278400ca89bf00d6a9b700cc89bf00d8a9b700b1
:10279400ce89bf00daa9b700d089bf00dca9b70091
:1027a400d289bf00dea9b700d489bf00e0a9b70071
:1027b40000000600f209ae00bc1302000000000095
:1027c4006813020000000000e209af00e429ed00f4
:1027d400e209ae00bc130200000000007413020002
:1027e40000000000e609af00d629ed00e609af00bd
:1027f400c442a800e609af00cc42a800e609ae0036
:10280400c442a900e609ae00cc42a900801302002c
:1028140000000000e809af00d829ed00e809af0086
:10282400c462a800e809af00cc62a800e809ae00c1
:10283400c462a900e809ae00cc62a9008c130200ae
:1028440000000000ea09af00da29ed00ea09af0050
:10285400cc82a800ea09ae00cc82a9009813020039
:1028640000000000ec09af00dc29ed00ec09af002a
:10287400cca2a800ec09ae00cca2a900a4130200cb
:1028840000000000ee09af00de29ed00ee09af0004
:10289400ccc2a800ee09ae00ccc2a900b01302005d
:1028a40000000000f009af00e029ed00f009af00de
:1028b400cce2a800f009ae00cce2a90000000600ba
:1028c4000200fa000000eb00000f7800f003200083
:1028d400303a8800213a8000f0f32f000080600035
:1028e400203a8800213a800000fe2f00008060001a
:1028f400203a88001200200080072000a10920004f
:102904003374200080497800814978008249780036
:1029140012002000600420007105200023742000b0
:10292400804978008149780082497800103a800013
:10293400103a80001e0fe8000080fa000000060034
:020000040000fa
:10294400c40900000200000002000000e2fe0000d2
:10295400e608000078000000000000005e090000a6
:102964006600000000000000ca0900002a00000000
:102974000000000050080000960000000000000065
:10298400c609000002000000020000000a00000066
:10299400c809000002000000000000000000000060
:020000040000fa
:1029a400849fbe00869fbe00889fbe008460a900ed
:1029b4000000800000088800e628ec00f60702000a
:1029c40000000000dc13020000000000f20e020010
:1029d400000000004f04be004f03be004f02be00c3
:1029e400004006000000fa0005e1a80005a1a800c7
:1029f40021088000f0fc2f0000806000200888007f
:102a040004a1a9000421a90020ee2f0000088800d9
:102a14009460a8000080fa00000006000000fa009c
:102a2400f0072000b00e8800c842a900c862a900bf
:102a3400c882a900c8a2a900c8c2a900c8e2a90006
:102a4400c042a900c062a9000080fa00000006008c
:0c2a5400d2140400000000000040060046
:00000001FF
